{
  "contractName": "Ebay",
  "abi": [
    {
      "inputs": [
        {
          "internalType": "uint256",
          "name": "",
          "type": "uint256"
        }
      ],
      "name": "products",
      "outputs": [
        {
          "internalType": "address",
          "name": "buyer",
          "type": "address"
        },
        {
          "internalType": "address",
          "name": "seller",
          "type": "address"
        },
        {
          "internalType": "uint256",
          "name": "id",
          "type": "uint256"
        },
        {
          "internalType": "uint256",
          "name": "price",
          "type": "uint256"
        },
        {
          "internalType": "uint256",
          "name": "rating",
          "type": "uint256"
        },
        {
          "internalType": "string",
          "name": "name",
          "type": "string"
        },
        {
          "internalType": "string",
          "name": "description",
          "type": "string"
        },
        {
          "internalType": "string",
          "name": "category",
          "type": "string"
        },
        {
          "internalType": "string",
          "name": "imgUrl",
          "type": "string"
        }
      ],
      "stateMutability": "view",
      "type": "function",
      "constant": true
    },
    {
      "inputs": [
        {
          "internalType": "string",
          "name": "_name",
          "type": "string"
        },
        {
          "internalType": "string",
          "name": "_description",
          "type": "string"
        },
        {
          "internalType": "string",
          "name": "_category",
          "type": "string"
        },
        {
          "internalType": "string",
          "name": "_imgUrl",
          "type": "string"
        },
        {
          "internalType": "uint256",
          "name": "_price",
          "type": "uint256"
        },
        {
          "internalType": "uint256",
          "name": "_rating",
          "type": "uint256"
        }
      ],
      "name": "listNewProduct",
      "outputs": [],
      "stateMutability": "nonpayable",
      "type": "function"
    },
    {
      "inputs": [],
      "name": "getNumberOfProducts",
      "outputs": [
        {
          "internalType": "uint256",
          "name": "",
          "type": "uint256"
        }
      ],
      "stateMutability": "view",
      "type": "function",
      "constant": true
    },
    {
      "inputs": [
        {
          "internalType": "uint256",
          "name": "_id",
          "type": "uint256"
        }
      ],
      "name": "purchaseItem",
      "outputs": [],
      "stateMutability": "payable",
      "type": "function",
      "payable": true
    }
  ],
  "bytecode": "0x608060405234801561001057600080fd5b50611133806100206000396000f3fe60806040526004361061003f5760003560e01c80633ffd81fb146100445780637acc0b201461006f578063d38ea5bf146100b4578063eebcee54146100d0575b600080fd5b34801561005057600080fd5b506100596100f9565b604051610066919061080a565b60405180910390f35b34801561007b57600080fd5b5061009660048036038101906100919190610865565b610102565b6040516100ab99989796959493929190610963565b60405180910390f35b6100ce60048036038101906100c99190610865565b6103b0565b005b3480156100dc57600080fd5b506100f760048036038101906100f29190610b41565b610641565b005b60008054905090565b60016020528060005260406000206000915090508060000160009054906101000a900473ffffffffffffffffffffffffffffffffffffffff16908060010160009054906101000a900473ffffffffffffffffffffffffffffffffffffffff169080600201549080600301549080600401549080600501805461018390610c6d565b80601f01602080910402602001604051908101604052809291908181526020018280546101af90610c6d565b80156101fc5780601f106101d1576101008083540402835291602001916101fc565b820191906000526020600020905b8154815290600101906020018083116101df57829003601f168201915b50505050509080600601805461021190610c6d565b80601f016020809104026020016040519081016040528092919081815260200182805461023d90610c6d565b801561028a5780601f1061025f5761010080835404028352916020019161028a565b820191906000526020600020905b81548152906001019060200180831161026d57829003601f168201915b50505050509080600701805461029f90610c6d565b80601f01602080910402602001604051908101604052809291908181526020018280546102cb90610c6d565b80156103185780601f106102ed57610100808354040283529160200191610318565b820191906000526020600020905b8154815290600101906020018083116102fb57829003601f168201915b50505050509080600801805461032d90610c6d565b80601f016020809104026020016040519081016040528092919081815260200182805461035990610c6d565b80156103a65780601f1061037b576101008083540402835291602001916103a6565b820191906000526020600020905b81548152906001019060200180831161038957829003601f168201915b5050505050905089565b60006001600083815260200190815260200160002090508060030154341461040d576040517f08c379a000000000000000000000000000000000000000000000000000000000815260040161040490610cea565b60405180910390fd5b600073ffffffffffffffffffffffffffffffffffffffff168160010160009054906101000a900473ffffffffffffffffffffffffffffffffffffffff1673ffffffffffffffffffffffffffffffffffffffff160361046a57600080fd5b600073ffffffffffffffffffffffffffffffffffffffff168160000160009054906101000a900473ffffffffffffffffffffffffffffffffffffffff1673ffffffffffffffffffffffffffffffffffffffff16146104fd576040517f08c379a00000000000000000000000000000000000000000000000000000000081526004016104f490610d56565b60405180910390fd5b8060010160009054906101000a900473ffffffffffffffffffffffffffffffffffffffff1673ffffffffffffffffffffffffffffffffffffffff163373ffffffffffffffffffffffffffffffffffffffff160361058f576040517f08c379a000000000000000000000000000000000000000000000000000000000815260040161058690610de8565b60405180910390fd5b338160000160006101000a81548173ffffffffffffffffffffffffffffffffffffffff021916908373ffffffffffffffffffffffffffffffffffffffff1602179055508060010160009054906101000a900473ffffffffffffffffffffffffffffffffffffffff1673ffffffffffffffffffffffffffffffffffffffff166108fc349081150290604051600060405180830381858888f1935050505015801561063c573d6000803e3d6000fd5b505050565b6000604051806101200160405280600073ffffffffffffffffffffffffffffffffffffffff1681526020013373ffffffffffffffffffffffffffffffffffffffff168152602001600054815260200184815260200183815260200188815260200187815260200186815260200185815250905080600160008054815260200190815260200160002060008201518160000160006101000a81548173ffffffffffffffffffffffffffffffffffffffff021916908373ffffffffffffffffffffffffffffffffffffffff16021790555060208201518160010160006101000a81548173ffffffffffffffffffffffffffffffffffffffff021916908373ffffffffffffffffffffffffffffffffffffffff16021790555060408201518160020155606082015181600301556080820151816004015560a082015181600501908161078a9190610fb4565b5060c08201518160060190816107a09190610fb4565b5060e08201518160070190816107b69190610fb4565b506101008201518160080190816107cd9190610fb4565b509050506000808154809291906107e3906110b5565b919050555050505050505050565b6000819050919050565b610804816107f1565b82525050565b600060208201905061081f60008301846107fb565b92915050565b6000604051905090565b600080fd5b600080fd5b610842816107f1565b811461084d57600080fd5b50565b60008135905061085f81610839565b92915050565b60006020828403121561087b5761087a61082f565b5b600061088984828501610850565b91505092915050565b600073ffffffffffffffffffffffffffffffffffffffff82169050919050565b60006108bd82610892565b9050919050565b6108cd816108b2565b82525050565b600081519050919050565b600082825260208201905092915050565b60005b8381101561090d5780820151818401526020810190506108f2565b60008484015250505050565b6000601f19601f8301169050919050565b6000610935826108d3565b61093f81856108de565b935061094f8185602086016108ef565b61095881610919565b840191505092915050565b600061012082019050610979600083018c6108c4565b610986602083018b6108c4565b610993604083018a6107fb565b6109a060608301896107fb565b6109ad60808301886107fb565b81810360a08301526109bf818761092a565b905081810360c08301526109d3818661092a565b905081810360e08301526109e7818561092a565b90508181036101008301526109fc818461092a565b90509a9950505050505050505050565b600080fd5b600080fd5b7f4e487b7100000000000000000000000000000000000000000000000000000000600052604160045260246000fd5b610a4e82610919565b810181811067ffffffffffffffff82111715610a6d57610a6c610a16565b5b80604052505050565b6000610a80610825565b9050610a8c8282610a45565b919050565b600067ffffffffffffffff821115610aac57610aab610a16565b5b610ab582610919565b9050602081019050919050565b82818337600083830152505050565b6000610ae4610adf84610a91565b610a76565b905082815260208101848484011115610b0057610aff610a11565b5b610b0b848285610ac2565b509392505050565b600082601f830112610b2857610b27610a0c565b5b8135610b38848260208601610ad1565b91505092915050565b60008060008060008060c08789031215610b5e57610b5d61082f565b5b600087013567ffffffffffffffff811115610b7c57610b7b610834565b5b610b8889828a01610b13565b965050602087013567ffffffffffffffff811115610ba957610ba8610834565b5b610bb589828a01610b13565b955050604087013567ffffffffffffffff811115610bd657610bd5610834565b5b610be289828a01610b13565b945050606087013567ffffffffffffffff811115610c0357610c02610834565b5b610c0f89828a01610b13565b9350506080610c2089828a01610850565b92505060a0610c3189828a01610850565b9150509295509295509295565b7f4e487b7100000000000000000000000000000000000000000000000000000000600052602260045260246000fd5b60006002820490506001821680610c8557607f821691505b602082108103610c9857610c97610c3e565b5b50919050565b7f496e76616c696420616d6f756e742073656e7420666f722070726f6475637400600082015250565b6000610cd4601f836108de565b9150610cdf82610c9e565b602082019050919050565b60006020820190508181036000830152610d0381610cc7565b9050919050565b7f4974656d20686173206265656e20626f75676874000000000000000000000000600082015250565b6000610d406014836108de565b9150610d4b82610d0a565b602082019050919050565b60006020820190508181036000830152610d6f81610d33565b9050919050565b7f53656c6c65722063616e6e6f7420627579207468656972206f776e2070726f6460008201527f7563740000000000000000000000000000000000000000000000000000000000602082015250565b6000610dd26023836108de565b9150610ddd82610d76565b604082019050919050565b60006020820190508181036000830152610e0181610dc5565b9050919050565b60008190508160005260206000209050919050565b60006020601f8301049050919050565b600082821b905092915050565b600060088302610e6a7fffffffffffffffffffffffffffffffffffffffffffffffffffffffffffffffff82610e2d565b610e748683610e2d565b95508019841693508086168417925050509392505050565b6000819050919050565b6000610eb1610eac610ea7846107f1565b610e8c565b6107f1565b9050919050565b6000819050919050565b610ecb83610e96565b610edf610ed782610eb8565b848454610e3a565b825550505050565b600090565b610ef4610ee7565b610eff818484610ec2565b505050565b5b81811015610f2357610f18600082610eec565b600181019050610f05565b5050565b601f821115610f6857610f3981610e08565b610f4284610e1d565b81016020851015610f51578190505b610f65610f5d85610e1d565b830182610f04565b50505b505050565b600082821c905092915050565b6000610f8b60001984600802610f6d565b1980831691505092915050565b6000610fa48383610f7a565b9150826002028217905092915050565b610fbd826108d3565b67ffffffffffffffff811115610fd657610fd5610a16565b5b610fe08254610c6d565b610feb828285610f27565b600060209050601f83116001811461101e576000841561100c578287015190505b6110168582610f98565b86555061107e565b601f19841661102c86610e08565b60005b828110156110545784890151825560018201915060208501945060208101905061102f565b86831015611071578489015161106d601f891682610f7a565b8355505b6001600288020188555050505b505050505050565b7f4e487b7100000000000000000000000000000000000000000000000000000000600052601160045260246000fd5b60006110c0826107f1565b91507fffffffffffffffffffffffffffffffffffffffffffffffffffffffffffffffff82036110f2576110f1611086565b5b60018201905091905056fea2646970667358221220f5ba0216011c3af5bd848ecb212f0b5412afd9aca0ff60fe38e754ff53fe795b64736f6c63430008100033",
  "immutableReferences": {},
  "source": "// SPDX-License-Identifier: MIT\n\npragma solidity ^0.8.16;\n\ncontract Ebay {\n    struct Product {\n        address buyer;\n        address seller;\n        uint256 id;\n        uint256 price;\n        uint256 rating;\n        string name;\n        string description;\n        string category;\n        string imgUrl;\n    }\n\n    uint256 productCounter;\n\n    mapping(uint256 => Product) public products;\n\n    function listNewProduct(\n        string memory _name,\n        string memory _description,\n        string memory _category,\n        string memory _imgUrl,\n        uint256 _price,\n        uint256 _rating\n    ) public {\n        Product memory newProduct = Product({\n            buyer: address(0),\n            seller: msg.sender,\n            id: productCounter,\n            price: _price,\n            rating: _rating,\n            name: _name,\n            description: _description,\n            category: _category,\n            imgUrl: _imgUrl\n        });\n\n        products[productCounter] = newProduct;\n        productCounter++;\n    }\n\n    function getNumberOfProducts() public view returns (uint256) {\n        return productCounter;\n    }\n\n    function purchaseItem(uint256 _id) public payable {\n        Product storage product = products[_id];\n\n        require(msg.value == product.price, \"Invalid amount sent for product\");\n        require(product.seller != address(0));\n        require(product.buyer == address(0), \"Item has been bought\");\n        require(\n            msg.sender != product.seller,\n            \"Seller cannot buy their own product\"\n        );\n\n        product.buyer = msg.sender;\n\n        payable(product.seller).transfer(msg.value);\n    }\n}\n",
  "sourcePath": "/Users/davidrakosi/GitHub/bts-ebay-infura/contracts/Ebay.sol",
  "compiler": {
    "name": "solc",
    "version": "0.8.16+commit.07a7930e.Emscripten.clang"
  },
  "schemaVersion": "3.4.9",
  "updatedAt": "2022-09-20T15:55:16.979Z",
  "networkType": "ethereum",
  "devdoc": {
    "kind": "dev",
    "methods": {},
    "version": 1
  },
  "userdoc": {
    "kind": "user",
    "methods": {},
    "version": 1
  }
}